S00A000054582E737265636E
S113000012C02CC02BC02AC029C028C027C026C0BB
S113001025C024C023C022C021C020C01FC01EC0D0
S11300201DC01CC01BC011241FBECFE5D4E0DEBF21
S1130030CDBF10E0A0E6B0E0E6EDF4E002C005902C
S11300400D92A036B107D9F710E0A0E6B0E001C0E8
S11300501D92A136B107E1F781D03BC2D1CF5F9B9E
S1130060FECF8CB108955D9BFECF8CB90895EF92BD
S11300700F931F93CF93DF93D62FC42F122FAA274A
S113008097FDA095BA2F880F991FAA1FBB1F880F31
S1130090991FAA1FBB1F9C01AD01220F331F441FD0
S11300A0551F220F331F441F551F60E472E48FE075
S11300B090E0EDD1CA01B901615070408040904098
S11300C046D182D1862FD13019F492E09BB903C076
S11300D0DD2309F4599870BD89B988E18AB981E0B2
S11300E0E81619F48AB1806C8AB9023019F480B523
S11300F0886080BD112321F480B5806280BD05C075
S1130100113019F480B5806380BDC63021F480B508
S1130110826080BD0CC0C73021F480B5846080BD8E
S11301200BC0C83021F480B5866080BD05C0C930DD
S113013019F480B58E6080BDDF91CF911F910F912E
S1130140EF900895089508958DED8DDF8DED8BDF8B
S113015008958EEE88DF8EEE86DF089517BA8FEF4E
S113016088BB84BB15BA11BA82BB80E699E060E013
S113017048E021E002E0EE247ADF8EEA74DF8AEAC6
S113018072DF8BEB70DF8FE996E8A1E0815090403D
S1130190A040E1F700C000008EEA65DF8AEA63DF71
S11301A08CEC61DFC1E0DD246894D6F8EE24689419
S11301B0E5F8FF246894F4F808E014E0D2E086B38C
S11301C080FD10C0809160008823C9F7C09360004F
S11301D08EEA49DFB9DF8AE046DFBBDF88B38C27CC
S11301E088BBEDCFB19910C080916000882339F7A6
S11301F0C09360008EEA37DFA7DF80EA34DFA9DF2F
S113020088B38D2788BBDBCFB29910C08091600082
S11302108823A9F6C09360008EEA25DF95DF8BE082
S113022022DF97DF88B3812788BBC9CFB39910C079
S113023080916000882319F6C09360008EEA13DF72
S113024083DF80EB10DF85DF88B3802788BBB7CFDF
S1130250B49911C080916000882309F0B0CFC09395
S113026060008EEA00DF70DF8CE0FDDE72DF88B3B1
S11302708F2588BBA4CFB59911C0809160008823D5
S113028009F09DCFC09360008EEAEDDE5DDF8DE066
S1130290EADE5FDF88B38E2588BB91CFB69911C0A3
S11302A080916000882309F08ACFC09360008EEAB1
S11302B0DADE4ADF8EE0D7DE4CDF88B38D2588BBDB
S11302C07ECFB09B08C080916000813009F077CF69
S11302D01092600074CFB19B08C08091600081309F
S11302E009F06DCF109260006ACFB29B08C0809174
S11302F06000813009F063CF1092600060CFB39B3F
S113030008C080916000813009F059CF10926000DC
S113031056CFB49B08C080916000813009F04FCF64
S1130320109260004CCFB59B08C080916000813072
S113033009F045CF1092600042CFB69B40CF809128
S11303406000813009F03BCF1092600038CFE89410
S113035009C097FB3EF490958095709561957F4F09
S11303608F4F9F4F9923A9F0F92F96E9BB279395B7
S1130370F695879577956795B795F111F8CFFAF4C7
S1130380BB0F11F460FF1BC06F5F7F4F8F4F9F4FF8
S113039016C0882311F096E911C0772321F09EE856
S11303A0872F762F05C0662371F096E8862F70E0BC
S11303B060E02AF09A95660F771F881FDAF7880F96
S11303C09695879597F9089541D0A8F19E57A8F17D
S11303D0985160F039F1983070F5092E9927660F1D
S11303E0771F881F991F0A94D1F71CC0BB27993F18
S11303F04CF4B111B1E0B62B672F782F8827985FA2
S1130400B1F708C0869577956795B79508F4B160FC
S11304109395C1F7BB0F30F411F460FF03C06F5F15
S11304207F4F8F4F3EF490958095709561957F4FE7
S11304308F4F9F4F0895689424C022C057FD905851
S1130440440F551F59F05F3F71F04795880F97FB94
S1130450991F61F09F3F79F087950895121613064E
S11304601406551FF2CF4695F1DF08C0161617067D
S11304701806991FF1CF86957105610508940895B2
S1130480E894BB2766277727CB0197F90895A1E263
S11304901A2EAA1BBB1BFD010DC0AA1FBB1FEE1FFA
S11304A0FF1FA217B307E407F50720F0A21BB30B45
S11304B0E40BF50B661F771F881F991F1A9469F7C1
S11304C060957095809590959B01AC01BD01CF011D
S10904D00895F894FFCF2B
S9030000FC
