S00A000052582E7372656370
S11300000C942A000C9447000C948D010C94470026
S11300100C9447000C9447000C9447000C94470040
S11300200C9447000C9447000C9447000C94470030
S11300300C9447000C9447000C9447000C94470020
S11300400C9447000C9447000C9447000C94470010
S11300500C94470011241FBECFE5D8E0DEBFCDBF0E
S113006010E0A0E6B0E0E4EAF5E002C005900D92ED
S1130070A036B107D9F710E0A0E6B0E001C01D92A8
S1130080A736B107E1F70E94BF000C94D0020C948C
S113009000005F9BFECF8CB108955D9BFECF8CB9B1
S11300A00895EF920F931F93CF93DF93D62FC42F0E
S11300B0122FAA2797FDA095BA2F880F991FAA1F60
S11300C0BB1F880F991FAA1FBB1F9C01AD01220FE4
S11300D0331F441F551F220F331F441F551F60E455
S11300E072E48FE090E00E94AE02CA01B90161504F
S11300F07040804090400E940E020E944B02862F66
S1130100D13019F492E09BB903C0DD2309F4599866
S113011070BD89B988E18AB981E0E81619F48AB119
S1130120806C8AB9023019F480B5886080BD1123CF
S113013021F480B5806280BD05C0113019F480B50A
S1130140806380BDC63021F480B5826080BD0CC060
S1130150C73021F480B5846080BD0BC0C83021F461
S113016080B5866080BD05C0C93019F480B58E6045
S113017080BDDF91CF911F910F91EF9008958FEF84
S11301808ABB1BBA80E381BB88E082BB80E699E02E
S113019060E048E021E002E0EE240E9451008BB7C9
S11301A080688BBF85B78C6085BF1DBC1CBC8FB5B8
S11301B0826F8FBD8EB589618EBD8FE19EE497BD40
S11301C086BD81E090E09BBD8ABD99BD88BD7894D1
S11301D090E45F9BFECF8CB1809366008E3AC9F7A2
S11301E05F9BFECF8CB1809366008A3A91F75F9B48
S11301F0FECF8CB1809366008B3B11F49BBBE9CF9F
S11302008C3C39F78BB388638BBB8FE996E8A1E00C
S113021081509040A040E1F700C00000DB98DC98DA
S1130220DD9851E002E010E1D4E0C0E2A2E6B0E0E3
S113023080E690E021E630E070E45F9BFECF4CB1B5
S1130240409366004E3AC9F75F9BFECF4CB1409392
S113025066004D3D09F053C05F9BFECF4CB1409307
S113026066004D3D51F75F9BFECF4CB14093650056
S11302705F9BFECF6CB1609366006E3EF1F65F9BB0
S1130280FECF6CB1609366006E3EB9F64C3069F0F7
S11302904D3099F04E30C1F04A30E9F0403AF9F06F
S11302A04B3019F1403B31F137C04BB345274BBBC1
S11302B04BB3E8E04E274BBBC0CF4BB340274BBBFF
S11302C04BB341274BBBB9CF4BB34D274BBB4BB3C0
S11302D04C274BBBB2CF509364005C93AECF50938A
S11302E06400E3E6F0E05083A8CF50936400FC017F
S11302F05083A3CF50936400F90150839ECF4A3AB0
S113030009F09BCF5F9BFECF4CB1409366004B3B03
S113031009F093CF7BBB91CFFFCF1F920F920FB603
S11303200F9211242F938F939F9326EA2A95F1F726
S113033000C080916400813009F064C010926400B0
S1130340809162008130A1F4109262008AB59BB55D
S1130350805D97409BBD8ABD8AB59BB5009709F027
S113036051C08AB59BB58053984F9BBD8ABD4AC086
S1130370809163008130A9F4109263008AB59BB523
S11303808053984F9BBD8ABD8AB59BB527E28231C5
S11303909207C0F18AB59BB5805D97409BBD8ABD2D
S11303A031C0809160008130A9F41092600088B55A
S11303B099B5805D974099BD88BD88B599B527E208
S11303C082319207F8F088B599B58053984F99BD5A
S11303D088BD18C0809161008130A1F41092610041
S11303E088B599B58053984F99BD88BD88B599B59E
S11303F027E28231920730F088B599B5805D974045
S113040099BD88BD8EE19EE49DBD8CBD9F918F9169
S11304102F910F900FBE0F901F901895E89409C06C
S113042097FB3EF490958095709561957F4F8F4F23
S11304309F4F9923A9F0F92F96E9BB279395F69539
S1130440879577956795B795F111F8CFFAF4BB0FB7
S113045011F460FF1BC06F5F7F4F8F4F9F4F16C01B
S1130460882311F096E911C0772321F09EE8872FA5
S1130470762F05C0662371F096E8862F70E060E061
S11304802AF09A95660F771F881FDAF7880F9695DA
S1130490879597F9089541D0A8F19E57A8F19851EE
S11304A060F039F1983070F5092E9927660F771F9F
S11304B0881F991F0A94D1F71CC0BB27993F4CF49D
S11304C0B111B1E0B62B672F782F8827985FB1F769
S11304D008C0869577956795B79508F4B1609395AC
S11304E0C1F7BB0F30F411F460FF03C06F5F7F4F9F
S11304F08F4F3EF490958095709561957F4F8F4F07
S11305009F4F0895689424C022C057FD9058440F0B
S1130510551F59F05F3F71F04795880F97FB991F5E
S113052061F09F3F79F0879508951216130614061B
S1130530551FF2CF4695F1DF08C0161617061806A8
S1130540991FF1CF86957105610508940895E89483
S1130550BB2766277727CB0197F90895A1E21A2EC6
S1130560AA1BBB1BFD010DC0AA1FBB1FEE1FFF1F53
S1130570A217B307E407F50720F0A21BB30BE40BA3
S1130580F50B661F771F881F991F1A9469F76095EA
S11305907095809590959B01AC01BD01CF010895A4
S10705A0F894FFCFF9
S9030000FC
